{
	"contracts/SOLIDITY-BY-EXAMPLE/operators.sol": {
		"ArithmeticOperators": {
			"abi": [
				{
					"inputs": [],
					"name": "div",
					"outputs": [
						{
							"internalType": "uint256",
							"name": "",
							"type": "uint256"
						}
					],
					"stateMutability": "view",
					"type": "function"
				},
				{
					"inputs": [],
					"name": "minus",
					"outputs": [
						{
							"internalType": "uint256",
							"name": "",
							"type": "uint256"
						}
					],
					"stateMutability": "view",
					"type": "function"
				},
				{
					"inputs": [],
					"name": "multiply",
					"outputs": [
						{
							"internalType": "uint256",
							"name": "",
							"type": "uint256"
						}
					],
					"stateMutability": "view",
					"type": "function"
				},
				{
					"inputs": [],
					"name": "sum",
					"outputs": [
						{
							"internalType": "uint256",
							"name": "",
							"type": "uint256"
						}
					],
					"stateMutability": "view",
					"type": "function"
				},
				{
					"inputs": [],
					"name": "x",
					"outputs": [
						{
							"internalType": "uint16",
							"name": "",
							"type": "uint16"
						}
					],
					"stateMutability": "view",
					"type": "function"
				},
				{
					"inputs": [],
					"name": "y",
					"outputs": [
						{
							"internalType": "uint16",
							"name": "",
							"type": "uint16"
						}
					],
					"stateMutability": "view",
					"type": "function"
				}
			],
			"devdoc": {
				"kind": "dev",
				"methods": {},
				"version": 1
			},
			"evm": {
				"assembly": "    /* \"contracts/SOLIDITY-BY-EXAMPLE/operators.sol\":69:409  contract ArithmeticOperators {... */\n  mstore(0x40, 0x80)\n    /* \"contracts/SOLIDITY-BY-EXAMPLE/operators.sol\":159:161  40 */\n  0x28\n    /* \"contracts/SOLIDITY-BY-EXAMPLE/operators.sol\":141:161  uint16 public x = 40 */\n  0x00\n  dup1\n  0x0100\n  exp\n  dup2\n  sload\n  dup2\n  0xffff\n  mul\n  not\n  and\n  swap1\n  dup4\n  0xffff\n  and\n  mul\n  or\n  swap1\n  sstore\n  pop\n    /* \"contracts/SOLIDITY-BY-EXAMPLE/operators.sol\":186:188  30 */\n  0x1e\n    /* \"contracts/SOLIDITY-BY-EXAMPLE/operators.sol\":168:188  uint16 public y = 30 */\n  0x00\n  exp(0x0100, 0x02)\n  dup2\n  sload\n  dup2\n  0xffff\n  mul\n  not\n  and\n  swap1\n  dup4\n  0xffff\n  and\n  mul\n  or\n  swap1\n  sstore\n  pop\n    /* \"contracts/SOLIDITY-BY-EXAMPLE/operators.sol\":248:249  y */\n  0x00\n  0x02\n  swap1\n  sload\n  swap1\n  0x0100\n  exp\n  swap1\n  div\n  0xffff\n  and\n    /* \"contracts/SOLIDITY-BY-EXAMPLE/operators.sol\":244:245  x */\n  0x00\n  dup1\n  sload\n  swap1\n  0x0100\n  exp\n  swap1\n  div\n  0xffff\n  and\n    /* \"contracts/SOLIDITY-BY-EXAMPLE/operators.sol\":244:249  x + y */\n  tag_1\n  swap2\n  swap1\n  tag_2\n  jump\t// in\ntag_1:\n    /* \"contracts/SOLIDITY-BY-EXAMPLE/operators.sol\":226:249  uint public sum = x + y */\n  0xffff\n  and\n  0x01\n  sstore\n    /* \"contracts/SOLIDITY-BY-EXAMPLE/operators.sol\":305:306  y */\n  0x00\n  0x02\n  swap1\n  sload\n  swap1\n  0x0100\n  exp\n  swap1\n  div\n  0xffff\n  and\n    /* \"contracts/SOLIDITY-BY-EXAMPLE/operators.sol\":301:302  x */\n  0x00\n  dup1\n  sload\n  swap1\n  0x0100\n  exp\n  swap1\n  div\n  0xffff\n  and\n    /* \"contracts/SOLIDITY-BY-EXAMPLE/operators.sol\":301:306  x - y */\n  tag_3\n  swap2\n  swap1\n  tag_4\n  jump\t// in\ntag_3:\n    /* \"contracts/SOLIDITY-BY-EXAMPLE/operators.sol\":281:306  uint public minus = x - y */\n  0xffff\n  and\n  0x02\n  sstore\n    /* \"contracts/SOLIDITY-BY-EXAMPLE/operators.sol\":358:359  y */\n  0x00\n  0x02\n  swap1\n  sload\n  swap1\n  0x0100\n  exp\n  swap1\n  div\n  0xffff\n  and\n    /* \"contracts/SOLIDITY-BY-EXAMPLE/operators.sol\":354:355  x */\n  0x00\n  dup1\n  sload\n  swap1\n  0x0100\n  exp\n  swap1\n  div\n  0xffff\n  and\n    /* \"contracts/SOLIDITY-BY-EXAMPLE/operators.sol\":354:359  x * y */\n  tag_5\n  swap2\n  swap1\n  tag_6\n  jump\t// in\ntag_5:\n    /* \"contracts/SOLIDITY-BY-EXAMPLE/operators.sol\":331:359  uint public multiply = x * y */\n  0xffff\n  and\n  0x03\n  sstore\n    /* \"contracts/SOLIDITY-BY-EXAMPLE/operators.sol\":404:405  y */\n  0x00\n  0x02\n  swap1\n  sload\n  swap1\n  0x0100\n  exp\n  swap1\n  div\n  0xffff\n  and\n    /* \"contracts/SOLIDITY-BY-EXAMPLE/operators.sol\":402:403  x */\n  0x00\n  dup1\n  sload\n  swap1\n  0x0100\n  exp\n  swap1\n  div\n  0xffff\n  and\n    /* \"contracts/SOLIDITY-BY-EXAMPLE/operators.sol\":402:405  x/y */\n  tag_7\n  swap2\n  swap1\n  tag_8\n  jump\t// in\ntag_7:\n    /* \"contracts/SOLIDITY-BY-EXAMPLE/operators.sol\":384:405  uint public div = x/y */\n  0xffff\n  and\n  0x04\n  sstore\n    /* \"contracts/SOLIDITY-BY-EXAMPLE/operators.sol\":69:409  contract ArithmeticOperators {... */\n  callvalue\n  dup1\n  iszero\n  tag_9\n  jumpi\n  0x00\n  dup1\n  revert\ntag_9:\n  pop\n  jump(tag_10)\n    /* \"#utility.yul\":7:96   */\ntag_11:\n    /* \"#utility.yul\":43:50   */\n  0x00\n    /* \"#utility.yul\":83:89   */\n  0xffff\n    /* \"#utility.yul\":76:81   */\n  dup3\n    /* \"#utility.yul\":72:90   */\n  and\n    /* \"#utility.yul\":61:90   */\n  swap1\n  pop\n    /* \"#utility.yul\":7:96   */\n  swap2\n  swap1\n  pop\n  jump\t// out\n    /* \"#utility.yul\":102:282   */\ntag_12:\n    /* \"#utility.yul\":150:227   */\n  0x4e487b7100000000000000000000000000000000000000000000000000000000\n    /* \"#utility.yul\":147:148   */\n  0x00\n    /* \"#utility.yul\":140:228   */\n  mstore\n    /* \"#utility.yul\":247:251   */\n  0x11\n    /* \"#utility.yul\":244:245   */\n  0x04\n    /* \"#utility.yul\":237:252   */\n  mstore\n    /* \"#utility.yul\":271:275   */\n  0x24\n    /* \"#utility.yul\":268:269   */\n  0x00\n    /* \"#utility.yul\":261:276   */\n  revert\n    /* \"#utility.yul\":288:481   */\ntag_2:\n    /* \"#utility.yul\":327:330   */\n  0x00\n    /* \"#utility.yul\":346:365   */\n  tag_18\n    /* \"#utility.yul\":363:364   */\n  dup3\n    /* \"#utility.yul\":346:365   */\n  tag_11\n  jump\t// in\ntag_18:\n    /* \"#utility.yul\":341:365   */\n  swap2\n  pop\n    /* \"#utility.yul\":379:398   */\n  tag_19\n    /* \"#utility.yul\":396:397   */\n  dup4\n    /* \"#utility.yul\":379:398   */\n  tag_11\n  jump\t// in\ntag_19:\n    /* \"#utility.yul\":374:398   */\n  swap3\n  pop\n    /* \"#utility.yul\":421:422   */\n  dup3\n    /* \"#utility.yul\":418:419   */\n  dup3\n    /* \"#utility.yul\":414:423   */\n  add\n    /* \"#utility.yul\":407:423   */\n  swap1\n  pop\n    /* \"#utility.yul\":444:450   */\n  0xffff\n    /* \"#utility.yul\":439:442   */\n  dup2\n    /* \"#utility.yul\":436:451   */\n  gt\n    /* \"#utility.yul\":433:474   */\n  iszero\n  tag_20\n  jumpi\n    /* \"#utility.yul\":454:472   */\n  tag_21\n  tag_12\n  jump\t// in\ntag_21:\n    /* \"#utility.yul\":433:474   */\ntag_20:\n    /* \"#utility.yul\":288:481   */\n  swap3\n  swap2\n  pop\n  pop\n  jump\t// out\n    /* \"#utility.yul\":487:683   */\ntag_4:\n    /* \"#utility.yul\":526:530   */\n  0x00\n    /* \"#utility.yul\":546:565   */\n  tag_23\n    /* \"#utility.yul\":563:564   */\n  dup3\n    /* \"#utility.yul\":546:565   */\n  tag_11\n  jump\t// in\ntag_23:\n    /* \"#utility.yul\":541:565   */\n  swap2\n  pop\n    /* \"#utility.yul\":579:598   */\n  tag_24\n    /* \"#utility.yul\":596:597   */\n  dup4\n    /* \"#utility.yul\":579:598   */\n  tag_11\n  jump\t// in\ntag_24:\n    /* \"#utility.yul\":574:598   */\n  swap3\n  pop\n    /* \"#utility.yul\":622:623   */\n  dup3\n    /* \"#utility.yul\":619:620   */\n  dup3\n    /* \"#utility.yul\":615:624   */\n  sub\n    /* \"#utility.yul\":607:624   */\n  swap1\n  pop\n    /* \"#utility.yul\":646:652   */\n  0xffff\n    /* \"#utility.yul\":640:644   */\n  dup2\n    /* \"#utility.yul\":637:653   */\n  gt\n    /* \"#utility.yul\":634:676   */\n  iszero\n  tag_25\n  jumpi\n    /* \"#utility.yul\":656:674   */\n  tag_26\n  tag_12\n  jump\t// in\ntag_26:\n    /* \"#utility.yul\":634:676   */\ntag_25:\n    /* \"#utility.yul\":487:683   */\n  swap3\n  swap2\n  pop\n  pop\n  jump\t// out\n    /* \"#utility.yul\":689:964   */\ntag_6:\n    /* \"#utility.yul\":728:735   */\n  0x00\n    /* \"#utility.yul\":751:770   */\n  tag_28\n    /* \"#utility.yul\":768:769   */\n  dup3\n    /* \"#utility.yul\":751:770   */\n  tag_11\n  jump\t// in\ntag_28:\n    /* \"#utility.yul\":746:770   */\n  swap2\n  pop\n    /* \"#utility.yul\":784:803   */\n  tag_29\n    /* \"#utility.yul\":801:802   */\n  dup4\n    /* \"#utility.yul\":784:803   */\n  tag_11\n  jump\t// in\ntag_29:\n    /* \"#utility.yul\":779:803   */\n  swap3\n  pop\n    /* \"#utility.yul\":838:839   */\n  dup3\n    /* \"#utility.yul\":835:836   */\n  dup3\n    /* \"#utility.yul\":831:840   */\n  mul\n    /* \"#utility.yul\":860:889   */\n  tag_30\n    /* \"#utility.yul\":877:888   */\n  dup2\n    /* \"#utility.yul\":860:889   */\n  tag_11\n  jump\t// in\ntag_30:\n    /* \"#utility.yul\":849:889   */\n  swap2\n  pop\n    /* \"#utility.yul\":921:932   */\n  dup1\n    /* \"#utility.yul\":912:919   */\n  dup3\n    /* \"#utility.yul\":909:933   */\n  eq\n    /* \"#utility.yul\":899:957   */\n  tag_31\n  jumpi\n    /* \"#utility.yul\":937:955   */\n  tag_32\n  tag_12\n  jump\t// in\ntag_32:\n    /* \"#utility.yul\":899:957   */\ntag_31:\n    /* \"#utility.yul\":736:964   */\n  pop\n    /* \"#utility.yul\":689:964   */\n  swap3\n  swap2\n  pop\n  pop\n  jump\t// out\n    /* \"#utility.yul\":970:1150   */\ntag_13:\n    /* \"#utility.yul\":1018:1095   */\n  0x4e487b7100000000000000000000000000000000000000000000000000000000\n    /* \"#utility.yul\":1015:1016   */\n  0x00\n    /* \"#utility.yul\":1008:1096   */\n  mstore\n    /* \"#utility.yul\":1115:1119   */\n  0x12\n    /* \"#utility.yul\":1112:1113   */\n  0x04\n    /* \"#utility.yul\":1105:1120   */\n  mstore\n    /* \"#utility.yul\":1139:1143   */\n  0x24\n    /* \"#utility.yul\":1136:1137   */\n  0x00\n    /* \"#utility.yul\":1129:1144   */\n  revert\n    /* \"#utility.yul\":1156:1338   */\ntag_8:\n    /* \"#utility.yul\":1195:1196   */\n  0x00\n    /* \"#utility.yul\":1212:1231   */\n  tag_35\n    /* \"#utility.yul\":1229:1230   */\n  dup3\n    /* \"#utility.yul\":1212:1231   */\n  tag_11\n  jump\t// in\ntag_35:\n    /* \"#utility.yul\":1207:1231   */\n  swap2\n  pop\n    /* \"#utility.yul\":1245:1264   */\n  tag_36\n    /* \"#utility.yul\":1262:1263   */\n  dup4\n    /* \"#utility.yul\":1245:1264   */\n  tag_11\n  jump\t// in\ntag_36:\n    /* \"#utility.yul\":1240:1264   */\n  swap3\n  pop\n    /* \"#utility.yul\":1283:1284   */\n  dup3\n    /* \"#utility.yul\":1273:1308   */\n  tag_37\n  jumpi\n    /* \"#utility.yul\":1288:1306   */\n  tag_38\n  tag_13\n  jump\t// in\ntag_38:\n    /* \"#utility.yul\":1273:1308   */\ntag_37:\n    /* \"#utility.yul\":1330:1331   */\n  dup3\n    /* \"#utility.yul\":1327:1328   */\n  dup3\n    /* \"#utility.yul\":1323:1332   */\n  div\n    /* \"#utility.yul\":1318:1332   */\n  swap1\n  pop\n    /* \"#utility.yul\":1156:1338   */\n  swap3\n  swap2\n  pop\n  pop\n  jump\t// out\n    /* \"contracts/SOLIDITY-BY-EXAMPLE/operators.sol\":69:409  contract ArithmeticOperators {... */\ntag_10:\n  dataSize(sub_0)\n  dup1\n  dataOffset(sub_0)\n  0x00\n  codecopy\n  0x00\n  return\nstop\n\nsub_0: assembly {\n        /* \"contracts/SOLIDITY-BY-EXAMPLE/operators.sol\":69:409  contract ArithmeticOperators {... */\n      mstore(0x40, 0x80)\n      callvalue\n      dup1\n      iszero\n      tag_1\n      jumpi\n      0x00\n      dup1\n      revert\n    tag_1:\n      pop\n      jumpi(tag_2, lt(calldatasize, 0x04))\n      shr(0xe0, calldataload(0x00))\n      dup1\n      0x0c55699c\n      eq\n      tag_3\n      jumpi\n      dup1\n      0x14434fa5\n      eq\n      tag_4\n      jumpi\n      dup1\n      0x853255cc\n      eq\n      tag_5\n      jumpi\n      dup1\n      0xa56dfe4a\n      eq\n      tag_6\n      jumpi\n      dup1\n      0xf3593cd0\n      eq\n      tag_7\n      jumpi\n      dup1\n      0xf9fa48c3\n      eq\n      tag_8\n      jumpi\n    tag_2:\n      0x00\n      dup1\n      revert\n        /* \"contracts/SOLIDITY-BY-EXAMPLE/operators.sol\":141:161  uint16 public x = 40 */\n    tag_3:\n      tag_9\n      tag_10\n      jump\t// in\n    tag_9:\n      mload(0x40)\n      tag_11\n      swap2\n      swap1\n      tag_12\n      jump\t// in\n    tag_11:\n      mload(0x40)\n      dup1\n      swap2\n      sub\n      swap1\n      return\n        /* \"contracts/SOLIDITY-BY-EXAMPLE/operators.sol\":281:306  uint public minus = x - y */\n    tag_4:\n      tag_13\n      tag_14\n      jump\t// in\n    tag_13:\n      mload(0x40)\n      tag_15\n      swap2\n      swap1\n      tag_16\n      jump\t// in\n    tag_15:\n      mload(0x40)\n      dup1\n      swap2\n      sub\n      swap1\n      return\n        /* \"contracts/SOLIDITY-BY-EXAMPLE/operators.sol\":226:249  uint public sum = x + y */\n    tag_5:\n      tag_17\n      tag_18\n      jump\t// in\n    tag_17:\n      mload(0x40)\n      tag_19\n      swap2\n      swap1\n      tag_16\n      jump\t// in\n    tag_19:\n      mload(0x40)\n      dup1\n      swap2\n      sub\n      swap1\n      return\n        /* \"contracts/SOLIDITY-BY-EXAMPLE/operators.sol\":168:188  uint16 public y = 30 */\n    tag_6:\n      tag_20\n      tag_21\n      jump\t// in\n    tag_20:\n      mload(0x40)\n      tag_22\n      swap2\n      swap1\n      tag_12\n      jump\t// in\n    tag_22:\n      mload(0x40)\n      dup1\n      swap2\n      sub\n      swap1\n      return\n        /* \"contracts/SOLIDITY-BY-EXAMPLE/operators.sol\":331:359  uint public multiply = x * y */\n    tag_7:\n      tag_23\n      tag_24\n      jump\t// in\n    tag_23:\n      mload(0x40)\n      tag_25\n      swap2\n      swap1\n      tag_16\n      jump\t// in\n    tag_25:\n      mload(0x40)\n      dup1\n      swap2\n      sub\n      swap1\n      return\n        /* \"contracts/SOLIDITY-BY-EXAMPLE/operators.sol\":384:405  uint public div = x/y */\n    tag_8:\n      tag_26\n      tag_27\n      jump\t// in\n    tag_26:\n      mload(0x40)\n      tag_28\n      swap2\n      swap1\n      tag_16\n      jump\t// in\n    tag_28:\n      mload(0x40)\n      dup1\n      swap2\n      sub\n      swap1\n      return\n        /* \"contracts/SOLIDITY-BY-EXAMPLE/operators.sol\":141:161  uint16 public x = 40 */\n    tag_10:\n      0x00\n      dup1\n      sload\n      swap1\n      0x0100\n      exp\n      swap1\n      div\n      0xffff\n      and\n      dup2\n      jump\t// out\n        /* \"contracts/SOLIDITY-BY-EXAMPLE/operators.sol\":281:306  uint public minus = x - y */\n    tag_14:\n      sload(0x02)\n      dup2\n      jump\t// out\n        /* \"contracts/SOLIDITY-BY-EXAMPLE/operators.sol\":226:249  uint public sum = x + y */\n    tag_18:\n      sload(0x01)\n      dup2\n      jump\t// out\n        /* \"contracts/SOLIDITY-BY-EXAMPLE/operators.sol\":168:188  uint16 public y = 30 */\n    tag_21:\n      0x00\n      0x02\n      swap1\n      sload\n      swap1\n      0x0100\n      exp\n      swap1\n      div\n      0xffff\n      and\n      dup2\n      jump\t// out\n        /* \"contracts/SOLIDITY-BY-EXAMPLE/operators.sol\":331:359  uint public multiply = x * y */\n    tag_24:\n      sload(0x03)\n      dup2\n      jump\t// out\n        /* \"contracts/SOLIDITY-BY-EXAMPLE/operators.sol\":384:405  uint public div = x/y */\n    tag_27:\n      sload(0x04)\n      dup2\n      jump\t// out\n        /* \"#utility.yul\":7:96   */\n    tag_29:\n        /* \"#utility.yul\":43:50   */\n      0x00\n        /* \"#utility.yul\":83:89   */\n      0xffff\n        /* \"#utility.yul\":76:81   */\n      dup3\n        /* \"#utility.yul\":72:90   */\n      and\n        /* \"#utility.yul\":61:90   */\n      swap1\n      pop\n        /* \"#utility.yul\":7:96   */\n      swap2\n      swap1\n      pop\n      jump\t// out\n        /* \"#utility.yul\":102:217   */\n    tag_30:\n        /* \"#utility.yul\":187:210   */\n      tag_36\n        /* \"#utility.yul\":204:209   */\n      dup2\n        /* \"#utility.yul\":187:210   */\n      tag_29\n      jump\t// in\n    tag_36:\n        /* \"#utility.yul\":182:185   */\n      dup3\n        /* \"#utility.yul\":175:211   */\n      mstore\n        /* \"#utility.yul\":102:217   */\n      pop\n      pop\n      jump\t// out\n        /* \"#utility.yul\":223:441   */\n    tag_12:\n        /* \"#utility.yul\":314:318   */\n      0x00\n        /* \"#utility.yul\":352:354   */\n      0x20\n        /* \"#utility.yul\":341:350   */\n      dup3\n        /* \"#utility.yul\":337:355   */\n      add\n        /* \"#utility.yul\":329:355   */\n      swap1\n      pop\n        /* \"#utility.yul\":365:434   */\n      tag_38\n        /* \"#utility.yul\":431:432   */\n      0x00\n        /* \"#utility.yul\":420:429   */\n      dup4\n        /* \"#utility.yul\":416:433   */\n      add\n        /* \"#utility.yul\":407:413   */\n      dup5\n        /* \"#utility.yul\":365:434   */\n      tag_30\n      jump\t// in\n    tag_38:\n        /* \"#utility.yul\":223:441   */\n      swap3\n      swap2\n      pop\n      pop\n      jump\t// out\n        /* \"#utility.yul\":447:524   */\n    tag_31:\n        /* \"#utility.yul\":484:491   */\n      0x00\n        /* \"#utility.yul\":513:518   */\n      dup2\n        /* \"#utility.yul\":502:518   */\n      swap1\n      pop\n        /* \"#utility.yul\":447:524   */\n      swap2\n      swap1\n      pop\n      jump\t// out\n        /* \"#utility.yul\":530:648   */\n    tag_32:\n        /* \"#utility.yul\":617:641   */\n      tag_41\n        /* \"#utility.yul\":635:640   */\n      dup2\n        /* \"#utility.yul\":617:641   */\n      tag_31\n      jump\t// in\n    tag_41:\n        /* \"#utility.yul\":612:615   */\n      dup3\n        /* \"#utility.yul\":605:642   */\n      mstore\n        /* \"#utility.yul\":530:648   */\n      pop\n      pop\n      jump\t// out\n        /* \"#utility.yul\":654:876   */\n    tag_16:\n        /* \"#utility.yul\":747:751   */\n      0x00\n        /* \"#utility.yul\":785:787   */\n      0x20\n        /* \"#utility.yul\":774:783   */\n      dup3\n        /* \"#utility.yul\":770:788   */\n      add\n        /* \"#utility.yul\":762:788   */\n      swap1\n      pop\n        /* \"#utility.yul\":798:869   */\n      tag_43\n        /* \"#utility.yul\":866:867   */\n      0x00\n        /* \"#utility.yul\":855:864   */\n      dup4\n        /* \"#utility.yul\":851:868   */\n      add\n        /* \"#utility.yul\":842:848   */\n      dup5\n        /* \"#utility.yul\":798:869   */\n      tag_32\n      jump\t// in\n    tag_43:\n        /* \"#utility.yul\":654:876   */\n      swap3\n      swap2\n      pop\n      pop\n      jump\t// out\n\n    auxdata: 0xa264697066735822122083fdb6112e1dd2aef92810e61542546a7f5e933e2748337a2342f7c2e911d23364736f6c63430008110033\n}\n",
				"bytecode": {
					"linkReferences": {},
					"object": "608060405260286000806101000a81548161ffff021916908361ffff160217905550601e600060026101000a81548161ffff021916908361ffff160217905550600060029054906101000a900461ffff1660008054906101000a900461ffff166100699190610152565b61ffff16600155600060029054906101000a900461ffff1660008054906101000a900461ffff1661009a9190610188565b61ffff16600255600060029054906101000a900461ffff1660008054906101000a900461ffff166100cb91906101be565b61ffff16600355600060029054906101000a900461ffff1660008054906101000a900461ffff166100fc919061022a565b61ffff1660045534801561010f57600080fd5b5061025b565b600061ffff82169050919050565b7f4e487b7100000000000000000000000000000000000000000000000000000000600052601160045260246000fd5b600061015d82610115565b915061016883610115565b9250828201905061ffff81111561018257610181610123565b5b92915050565b600061019382610115565b915061019e83610115565b9250828203905061ffff8111156101b8576101b7610123565b5b92915050565b60006101c982610115565b91506101d483610115565b92508282026101e281610115565b91508082146101f4576101f3610123565b5b5092915050565b7f4e487b7100000000000000000000000000000000000000000000000000000000600052601260045260246000fd5b600061023582610115565b915061024083610115565b9250826102505761024f6101fb565b5b828204905092915050565b6101fb8061026a6000396000f3fe608060405234801561001057600080fd5b50600436106100625760003560e01c80630c55699c1461006757806314434fa514610085578063853255cc146100a3578063a56dfe4a146100c1578063f3593cd0146100df578063f9fa48c3146100fd575b600080fd5b61006f61011b565b60405161007c9190610176565b60405180910390f35b61008d61012d565b60405161009a91906101aa565b60405180910390f35b6100ab610133565b6040516100b891906101aa565b60405180910390f35b6100c9610139565b6040516100d69190610176565b60405180910390f35b6100e761014d565b6040516100f491906101aa565b60405180910390f35b610105610153565b60405161011291906101aa565b60405180910390f35b60008054906101000a900461ffff1681565b60025481565b60015481565b600060029054906101000a900461ffff1681565b60035481565b60045481565b600061ffff82169050919050565b61017081610159565b82525050565b600060208201905061018b6000830184610167565b92915050565b6000819050919050565b6101a481610191565b82525050565b60006020820190506101bf600083018461019b565b9291505056fea264697066735822122083fdb6112e1dd2aef92810e61542546a7f5e933e2748337a2342f7c2e911d23364736f6c63430008110033",
					"opcodes": "PUSH1 0x80 PUSH1 0x40 MSTORE PUSH1 0x28 PUSH1 0x0 DUP1 PUSH2 0x100 EXP DUP2 SLOAD DUP2 PUSH2 0xFFFF MUL NOT AND SWAP1 DUP4 PUSH2 0xFFFF AND MUL OR SWAP1 SSTORE POP PUSH1 0x1E PUSH1 0x0 PUSH1 0x2 PUSH2 0x100 EXP DUP2 SLOAD DUP2 PUSH2 0xFFFF MUL NOT AND SWAP1 DUP4 PUSH2 0xFFFF AND MUL OR SWAP1 SSTORE POP PUSH1 0x0 PUSH1 0x2 SWAP1 SLOAD SWAP1 PUSH2 0x100 EXP SWAP1 DIV PUSH2 0xFFFF AND PUSH1 0x0 DUP1 SLOAD SWAP1 PUSH2 0x100 EXP SWAP1 DIV PUSH2 0xFFFF AND PUSH2 0x69 SWAP2 SWAP1 PUSH2 0x152 JUMP JUMPDEST PUSH2 0xFFFF AND PUSH1 0x1 SSTORE PUSH1 0x0 PUSH1 0x2 SWAP1 SLOAD SWAP1 PUSH2 0x100 EXP SWAP1 DIV PUSH2 0xFFFF AND PUSH1 0x0 DUP1 SLOAD SWAP1 PUSH2 0x100 EXP SWAP1 DIV PUSH2 0xFFFF AND PUSH2 0x9A SWAP2 SWAP1 PUSH2 0x188 JUMP JUMPDEST PUSH2 0xFFFF AND PUSH1 0x2 SSTORE PUSH1 0x0 PUSH1 0x2 SWAP1 SLOAD SWAP1 PUSH2 0x100 EXP SWAP1 DIV PUSH2 0xFFFF AND PUSH1 0x0 DUP1 SLOAD SWAP1 PUSH2 0x100 EXP SWAP1 DIV PUSH2 0xFFFF AND PUSH2 0xCB SWAP2 SWAP1 PUSH2 0x1BE JUMP JUMPDEST PUSH2 0xFFFF AND PUSH1 0x3 SSTORE PUSH1 0x0 PUSH1 0x2 SWAP1 SLOAD SWAP1 PUSH2 0x100 EXP SWAP1 DIV PUSH2 0xFFFF AND PUSH1 0x0 DUP1 SLOAD SWAP1 PUSH2 0x100 EXP SWAP1 DIV PUSH2 0xFFFF AND PUSH2 0xFC SWAP2 SWAP1 PUSH2 0x22A JUMP JUMPDEST PUSH2 0xFFFF AND PUSH1 0x4 SSTORE CALLVALUE DUP1 ISZERO PUSH2 0x10F JUMPI PUSH1 0x0 DUP1 REVERT JUMPDEST POP PUSH2 0x25B JUMP JUMPDEST PUSH1 0x0 PUSH2 0xFFFF DUP3 AND SWAP1 POP SWAP2 SWAP1 POP JUMP JUMPDEST PUSH32 0x4E487B7100000000000000000000000000000000000000000000000000000000 PUSH1 0x0 MSTORE PUSH1 0x11 PUSH1 0x4 MSTORE PUSH1 0x24 PUSH1 0x0 REVERT JUMPDEST PUSH1 0x0 PUSH2 0x15D DUP3 PUSH2 0x115 JUMP JUMPDEST SWAP2 POP PUSH2 0x168 DUP4 PUSH2 0x115 JUMP JUMPDEST SWAP3 POP DUP3 DUP3 ADD SWAP1 POP PUSH2 0xFFFF DUP2 GT ISZERO PUSH2 0x182 JUMPI PUSH2 0x181 PUSH2 0x123 JUMP JUMPDEST JUMPDEST SWAP3 SWAP2 POP POP JUMP JUMPDEST PUSH1 0x0 PUSH2 0x193 DUP3 PUSH2 0x115 JUMP JUMPDEST SWAP2 POP PUSH2 0x19E DUP4 PUSH2 0x115 JUMP JUMPDEST SWAP3 POP DUP3 DUP3 SUB SWAP1 POP PUSH2 0xFFFF DUP2 GT ISZERO PUSH2 0x1B8 JUMPI PUSH2 0x1B7 PUSH2 0x123 JUMP JUMPDEST JUMPDEST SWAP3 SWAP2 POP POP JUMP JUMPDEST PUSH1 0x0 PUSH2 0x1C9 DUP3 PUSH2 0x115 JUMP JUMPDEST SWAP2 POP PUSH2 0x1D4 DUP4 PUSH2 0x115 JUMP JUMPDEST SWAP3 POP DUP3 DUP3 MUL PUSH2 0x1E2 DUP2 PUSH2 0x115 JUMP JUMPDEST SWAP2 POP DUP1 DUP3 EQ PUSH2 0x1F4 JUMPI PUSH2 0x1F3 PUSH2 0x123 JUMP JUMPDEST JUMPDEST POP SWAP3 SWAP2 POP POP JUMP JUMPDEST PUSH32 0x4E487B7100000000000000000000000000000000000000000000000000000000 PUSH1 0x0 MSTORE PUSH1 0x12 PUSH1 0x4 MSTORE PUSH1 0x24 PUSH1 0x0 REVERT JUMPDEST PUSH1 0x0 PUSH2 0x235 DUP3 PUSH2 0x115 JUMP JUMPDEST SWAP2 POP PUSH2 0x240 DUP4 PUSH2 0x115 JUMP JUMPDEST SWAP3 POP DUP3 PUSH2 0x250 JUMPI PUSH2 0x24F PUSH2 0x1FB JUMP JUMPDEST JUMPDEST DUP3 DUP3 DIV SWAP1 POP SWAP3 SWAP2 POP POP JUMP JUMPDEST PUSH2 0x1FB DUP1 PUSH2 0x26A PUSH1 0x0 CODECOPY PUSH1 0x0 RETURN INVALID PUSH1 0x80 PUSH1 0x40 MSTORE CALLVALUE DUP1 ISZERO PUSH2 0x10 JUMPI PUSH1 0x0 DUP1 REVERT JUMPDEST POP PUSH1 0x4 CALLDATASIZE LT PUSH2 0x62 JUMPI PUSH1 0x0 CALLDATALOAD PUSH1 0xE0 SHR DUP1 PUSH4 0xC55699C EQ PUSH2 0x67 JUMPI DUP1 PUSH4 0x14434FA5 EQ PUSH2 0x85 JUMPI DUP1 PUSH4 0x853255CC EQ PUSH2 0xA3 JUMPI DUP1 PUSH4 0xA56DFE4A EQ PUSH2 0xC1 JUMPI DUP1 PUSH4 0xF3593CD0 EQ PUSH2 0xDF JUMPI DUP1 PUSH4 0xF9FA48C3 EQ PUSH2 0xFD JUMPI JUMPDEST PUSH1 0x0 DUP1 REVERT JUMPDEST PUSH2 0x6F PUSH2 0x11B JUMP JUMPDEST PUSH1 0x40 MLOAD PUSH2 0x7C SWAP2 SWAP1 PUSH2 0x176 JUMP JUMPDEST PUSH1 0x40 MLOAD DUP1 SWAP2 SUB SWAP1 RETURN JUMPDEST PUSH2 0x8D PUSH2 0x12D JUMP JUMPDEST PUSH1 0x40 MLOAD PUSH2 0x9A SWAP2 SWAP1 PUSH2 0x1AA JUMP JUMPDEST PUSH1 0x40 MLOAD DUP1 SWAP2 SUB SWAP1 RETURN JUMPDEST PUSH2 0xAB PUSH2 0x133 JUMP JUMPDEST PUSH1 0x40 MLOAD PUSH2 0xB8 SWAP2 SWAP1 PUSH2 0x1AA JUMP JUMPDEST PUSH1 0x40 MLOAD DUP1 SWAP2 SUB SWAP1 RETURN JUMPDEST PUSH2 0xC9 PUSH2 0x139 JUMP JUMPDEST PUSH1 0x40 MLOAD PUSH2 0xD6 SWAP2 SWAP1 PUSH2 0x176 JUMP JUMPDEST PUSH1 0x40 MLOAD DUP1 SWAP2 SUB SWAP1 RETURN JUMPDEST PUSH2 0xE7 PUSH2 0x14D JUMP JUMPDEST PUSH1 0x40 MLOAD PUSH2 0xF4 SWAP2 SWAP1 PUSH2 0x1AA JUMP JUMPDEST PUSH1 0x40 MLOAD DUP1 SWAP2 SUB SWAP1 RETURN JUMPDEST PUSH2 0x105 PUSH2 0x153 JUMP JUMPDEST PUSH1 0x40 MLOAD PUSH2 0x112 SWAP2 SWAP1 PUSH2 0x1AA JUMP JUMPDEST PUSH1 0x40 MLOAD DUP1 SWAP2 SUB SWAP1 RETURN JUMPDEST PUSH1 0x0 DUP1 SLOAD SWAP1 PUSH2 0x100 EXP SWAP1 DIV PUSH2 0xFFFF AND DUP2 JUMP JUMPDEST PUSH1 0x2 SLOAD DUP2 JUMP JUMPDEST PUSH1 0x1 SLOAD DUP2 JUMP JUMPDEST PUSH1 0x0 PUSH1 0x2 SWAP1 SLOAD SWAP1 PUSH2 0x100 EXP SWAP1 DIV PUSH2 0xFFFF AND DUP2 JUMP JUMPDEST PUSH1 0x3 SLOAD DUP2 JUMP JUMPDEST PUSH1 0x4 SLOAD DUP2 JUMP JUMPDEST PUSH1 0x0 PUSH2 0xFFFF DUP3 AND SWAP1 POP SWAP2 SWAP1 POP JUMP JUMPDEST PUSH2 0x170 DUP2 PUSH2 0x159 JUMP JUMPDEST DUP3 MSTORE POP POP JUMP JUMPDEST PUSH1 0x0 PUSH1 0x20 DUP3 ADD SWAP1 POP PUSH2 0x18B PUSH1 0x0 DUP4 ADD DUP5 PUSH2 0x167 JUMP JUMPDEST SWAP3 SWAP2 POP POP JUMP JUMPDEST PUSH1 0x0 DUP2 SWAP1 POP SWAP2 SWAP1 POP JUMP JUMPDEST PUSH2 0x1A4 DUP2 PUSH2 0x191 JUMP JUMPDEST DUP3 MSTORE POP POP JUMP JUMPDEST PUSH1 0x0 PUSH1 0x20 DUP3 ADD SWAP1 POP PUSH2 0x1BF PUSH1 0x0 DUP4 ADD DUP5 PUSH2 0x19B JUMP JUMPDEST SWAP3 SWAP2 POP POP JUMP INVALID LOG2 PUSH5 0x6970667358 0x22 SLT KECCAK256 DUP4 REVERT 0xB6 GT 0x2E SAR 0xD2 0xAE 0xF9 0x28 LT 0xE6 ISZERO TIMESTAMP SLOAD PUSH11 0x7F5E933E2748337A2342F7 0xC2 0xE9 GT 0xD2 CALLER PUSH5 0x736F6C6343 STOP ADDMOD GT STOP CALLER "
				},
				"gasEstimates": {
					"creation": {
						"codeDepositCost": "101400",
						"executionCost": "infinite",
						"totalCost": "infinite"
					},
					"external": {
						"div()": "2517",
						"minus()": "2429",
						"multiply()": "2495",
						"sum()": "2451",
						"x()": "2446",
						"y()": "2565"
					}
				},
				"methodIdentifiers": {
					"div()": "f9fa48c3",
					"minus()": "14434fa5",
					"multiply()": "f3593cd0",
					"sum()": "853255cc",
					"x()": "0c55699c",
					"y()": "a56dfe4a"
				}
			},
			"storageLayout": {
				"storage": [
					{
						"astId": 4,
						"contract": "contracts/SOLIDITY-BY-EXAMPLE/operators.sol:ArithmeticOperators",
						"label": "x",
						"offset": 0,
						"slot": "0",
						"type": "t_uint16"
					},
					{
						"astId": 7,
						"contract": "contracts/SOLIDITY-BY-EXAMPLE/operators.sol:ArithmeticOperators",
						"label": "y",
						"offset": 2,
						"slot": "0",
						"type": "t_uint16"
					},
					{
						"astId": 12,
						"contract": "contracts/SOLIDITY-BY-EXAMPLE/operators.sol:ArithmeticOperators",
						"label": "sum",
						"offset": 0,
						"slot": "1",
						"type": "t_uint256"
					},
					{
						"astId": 17,
						"contract": "contracts/SOLIDITY-BY-EXAMPLE/operators.sol:ArithmeticOperators",
						"label": "minus",
						"offset": 0,
						"slot": "2",
						"type": "t_uint256"
					},
					{
						"astId": 22,
						"contract": "contracts/SOLIDITY-BY-EXAMPLE/operators.sol:ArithmeticOperators",
						"label": "multiply",
						"offset": 0,
						"slot": "3",
						"type": "t_uint256"
					},
					{
						"astId": 27,
						"contract": "contracts/SOLIDITY-BY-EXAMPLE/operators.sol:ArithmeticOperators",
						"label": "div",
						"offset": 0,
						"slot": "4",
						"type": "t_uint256"
					}
				],
				"types": {
					"t_uint16": {
						"encoding": "inplace",
						"label": "uint16",
						"numberOfBytes": "2"
					},
					"t_uint256": {
						"encoding": "inplace",
						"label": "uint256",
						"numberOfBytes": "32"
					}
				}
			},
			"userdoc": {
				"kind": "user",
				"methods": {},
				"version": 1
			}
		}
	}
}