{
	"contracts/SOLIDITY-BY-EXAMPLE/mapping.sol": {
		"NestedMapping": {
			"abi": [
				{
					"inputs": [
						{
							"internalType": "address",
							"name": "_addr1",
							"type": "address"
						},
						{
							"internalType": "uint256",
							"name": "_i",
							"type": "uint256"
						}
					],
					"name": "get",
					"outputs": [
						{
							"internalType": "bool",
							"name": "",
							"type": "bool"
						}
					],
					"stateMutability": "view",
					"type": "function"
				},
				{
					"inputs": [
						{
							"internalType": "address",
							"name": "_addr1",
							"type": "address"
						},
						{
							"internalType": "uint256",
							"name": "_i",
							"type": "uint256"
						}
					],
					"name": "remover",
					"outputs": [],
					"stateMutability": "nonpayable",
					"type": "function"
				},
				{
					"inputs": [
						{
							"internalType": "address",
							"name": "_addr1",
							"type": "address"
						},
						{
							"internalType": "uint256",
							"name": "_i",
							"type": "uint256"
						},
						{
							"internalType": "bool",
							"name": "_boo",
							"type": "bool"
						}
					],
					"name": "set",
					"outputs": [],
					"stateMutability": "nonpayable",
					"type": "function"
				}
			],
			"devdoc": {
				"kind": "dev",
				"methods": {},
				"version": 1
			},
			"evm": {
				"assembly": "    /* \"contracts/SOLIDITY-BY-EXAMPLE/mapping.sol\":514:985  contract NestedMapping {... */\n  mstore(0x40, 0x80)\n  callvalue\n  dup1\n  iszero\n  tag_1\n  jumpi\n  0x00\n  dup1\n  revert\ntag_1:\n  pop\n  dataSize(sub_0)\n  dup1\n  dataOffset(sub_0)\n  0x00\n  codecopy\n  0x00\n  return\nstop\n\nsub_0: assembly {\n        /* \"contracts/SOLIDITY-BY-EXAMPLE/mapping.sol\":514:985  contract NestedMapping {... */\n      mstore(0x40, 0x80)\n      callvalue\n      dup1\n      iszero\n      tag_1\n      jumpi\n      0x00\n      dup1\n      revert\n    tag_1:\n      pop\n      jumpi(tag_2, lt(calldatasize, 0x04))\n      shr(0xe0, calldataload(0x00))\n      dup1\n      0x0b139194\n      eq\n      tag_3\n      jumpi\n      dup1\n      0x2d0f2680\n      eq\n      tag_4\n      jumpi\n      dup1\n      0xb464631b\n      eq\n      tag_5\n      jumpi\n    tag_2:\n      0x00\n      dup1\n      revert\n        /* \"contracts/SOLIDITY-BY-EXAMPLE/mapping.sol\":781:881  function set(address _addr1, uint _i, bool _boo) public {... */\n    tag_3:\n      tag_6\n      0x04\n      dup1\n      calldatasize\n      sub\n      dup2\n      add\n      swap1\n      tag_7\n      swap2\n      swap1\n      tag_8\n      jump\t// in\n    tag_7:\n      tag_9\n      jump\t// in\n    tag_6:\n      stop\n        /* \"contracts/SOLIDITY-BY-EXAMPLE/mapping.sol\":889:982  function remover(address _addr1, uint _i) public {... */\n    tag_4:\n      tag_10\n      0x04\n      dup1\n      calldatasize\n      sub\n      dup2\n      add\n      swap1\n      tag_11\n      swap2\n      swap1\n      tag_12\n      jump\t// in\n    tag_11:\n      tag_13\n      jump\t// in\n    tag_10:\n      stop\n        /* \"contracts/SOLIDITY-BY-EXAMPLE/mapping.sol\":664:773  function get(address _addr1, uint _i) public view returns (bool) {... */\n    tag_5:\n      tag_14\n      0x04\n      dup1\n      calldatasize\n      sub\n      dup2\n      add\n      swap1\n      tag_15\n      swap2\n      swap1\n      tag_12\n      jump\t// in\n    tag_15:\n      tag_16\n      jump\t// in\n    tag_14:\n      mload(0x40)\n      tag_17\n      swap2\n      swap1\n      tag_18\n      jump\t// in\n    tag_17:\n      mload(0x40)\n      dup1\n      swap2\n      sub\n      swap1\n      return\n        /* \"contracts/SOLIDITY-BY-EXAMPLE/mapping.sol\":781:881  function set(address _addr1, uint _i, bool _boo) public {... */\n    tag_9:\n        /* \"contracts/SOLIDITY-BY-EXAMPLE/mapping.sol\":869:873  _boo */\n      dup1\n        /* \"contracts/SOLIDITY-BY-EXAMPLE/mapping.sol\":848:854  nested */\n      0x00\n        /* \"contracts/SOLIDITY-BY-EXAMPLE/mapping.sol\":848:862  nested[_addr1] */\n      dup1\n        /* \"contracts/SOLIDITY-BY-EXAMPLE/mapping.sol\":855:861  _addr1 */\n      dup6\n        /* \"contracts/SOLIDITY-BY-EXAMPLE/mapping.sol\":848:862  nested[_addr1] */\n      0xffffffffffffffffffffffffffffffffffffffff\n      and\n      0xffffffffffffffffffffffffffffffffffffffff\n      and\n      dup2\n      mstore\n      0x20\n      add\n      swap1\n      dup2\n      mstore\n      0x20\n      add\n      0x00\n      keccak256\n        /* \"contracts/SOLIDITY-BY-EXAMPLE/mapping.sol\":848:866  nested[_addr1][_i] */\n      0x00\n        /* \"contracts/SOLIDITY-BY-EXAMPLE/mapping.sol\":863:865  _i */\n      dup5\n        /* \"contracts/SOLIDITY-BY-EXAMPLE/mapping.sol\":848:866  nested[_addr1][_i] */\n      dup2\n      mstore\n      0x20\n      add\n      swap1\n      dup2\n      mstore\n      0x20\n      add\n      0x00\n      keccak256\n      0x00\n        /* \"contracts/SOLIDITY-BY-EXAMPLE/mapping.sol\":848:873  nested[_addr1][_i] = _boo */\n      0x0100\n      exp\n      dup2\n      sload\n      dup2\n      0xff\n      mul\n      not\n      and\n      swap1\n      dup4\n      iszero\n      iszero\n      mul\n      or\n      swap1\n      sstore\n      pop\n        /* \"contracts/SOLIDITY-BY-EXAMPLE/mapping.sol\":781:881  function set(address _addr1, uint _i, bool _boo) public {... */\n      pop\n      pop\n      pop\n      jump\t// out\n        /* \"contracts/SOLIDITY-BY-EXAMPLE/mapping.sol\":889:982  function remover(address _addr1, uint _i) public {... */\n    tag_13:\n        /* \"contracts/SOLIDITY-BY-EXAMPLE/mapping.sol\":956:962  nested */\n      0x00\n        /* \"contracts/SOLIDITY-BY-EXAMPLE/mapping.sol\":956:970  nested[_addr1] */\n      dup1\n        /* \"contracts/SOLIDITY-BY-EXAMPLE/mapping.sol\":963:969  _addr1 */\n      dup4\n        /* \"contracts/SOLIDITY-BY-EXAMPLE/mapping.sol\":956:970  nested[_addr1] */\n      0xffffffffffffffffffffffffffffffffffffffff\n      and\n      0xffffffffffffffffffffffffffffffffffffffff\n      and\n      dup2\n      mstore\n      0x20\n      add\n      swap1\n      dup2\n      mstore\n      0x20\n      add\n      0x00\n      keccak256\n        /* \"contracts/SOLIDITY-BY-EXAMPLE/mapping.sol\":956:974  nested[_addr1][_i] */\n      0x00\n        /* \"contracts/SOLIDITY-BY-EXAMPLE/mapping.sol\":971:973  _i */\n      dup3\n        /* \"contracts/SOLIDITY-BY-EXAMPLE/mapping.sol\":956:974  nested[_addr1][_i] */\n      dup2\n      mstore\n      0x20\n      add\n      swap1\n      dup2\n      mstore\n      0x20\n      add\n      0x00\n      keccak256\n      0x00\n        /* \"contracts/SOLIDITY-BY-EXAMPLE/mapping.sol\":949:974  delete nested[_addr1][_i] */\n      0x0100\n      exp\n      dup2\n      sload\n      swap1\n      0xff\n      mul\n      not\n      and\n      swap1\n      sstore\n        /* \"contracts/SOLIDITY-BY-EXAMPLE/mapping.sol\":889:982  function remover(address _addr1, uint _i) public {... */\n      pop\n      pop\n      jump\t// out\n        /* \"contracts/SOLIDITY-BY-EXAMPLE/mapping.sol\":664:773  function get(address _addr1, uint _i) public view returns (bool) {... */\n    tag_16:\n        /* \"contracts/SOLIDITY-BY-EXAMPLE/mapping.sol\":723:727  bool */\n      0x00\n        /* \"contracts/SOLIDITY-BY-EXAMPLE/mapping.sol\":747:753  nested */\n      dup1\n        /* \"contracts/SOLIDITY-BY-EXAMPLE/mapping.sol\":747:761  nested[_addr1] */\n      0x00\n        /* \"contracts/SOLIDITY-BY-EXAMPLE/mapping.sol\":754:760  _addr1 */\n      dup5\n        /* \"contracts/SOLIDITY-BY-EXAMPLE/mapping.sol\":747:761  nested[_addr1] */\n      0xffffffffffffffffffffffffffffffffffffffff\n      and\n      0xffffffffffffffffffffffffffffffffffffffff\n      and\n      dup2\n      mstore\n      0x20\n      add\n      swap1\n      dup2\n      mstore\n      0x20\n      add\n      0x00\n      keccak256\n        /* \"contracts/SOLIDITY-BY-EXAMPLE/mapping.sol\":747:765  nested[_addr1][_i] */\n      0x00\n        /* \"contracts/SOLIDITY-BY-EXAMPLE/mapping.sol\":762:764  _i */\n      dup4\n        /* \"contracts/SOLIDITY-BY-EXAMPLE/mapping.sol\":747:765  nested[_addr1][_i] */\n      dup2\n      mstore\n      0x20\n      add\n      swap1\n      dup2\n      mstore\n      0x20\n      add\n      0x00\n      keccak256\n      0x00\n      swap1\n      sload\n      swap1\n      0x0100\n      exp\n      swap1\n      div\n      0xff\n      and\n        /* \"contracts/SOLIDITY-BY-EXAMPLE/mapping.sol\":740:765  return nested[_addr1][_i] */\n      swap1\n      pop\n        /* \"contracts/SOLIDITY-BY-EXAMPLE/mapping.sol\":664:773  function get(address _addr1, uint _i) public view returns (bool) {... */\n      swap3\n      swap2\n      pop\n      pop\n      jump\t// out\n        /* \"#utility.yul\":88:205   */\n    tag_23:\n        /* \"#utility.yul\":197:198   */\n      0x00\n        /* \"#utility.yul\":194:195   */\n      dup1\n        /* \"#utility.yul\":187:199   */\n      revert\n        /* \"#utility.yul\":334:460   */\n    tag_25:\n        /* \"#utility.yul\":371:378   */\n      0x00\n        /* \"#utility.yul\":411:453   */\n      0xffffffffffffffffffffffffffffffffffffffff\n        /* \"#utility.yul\":404:409   */\n      dup3\n        /* \"#utility.yul\":400:454   */\n      and\n        /* \"#utility.yul\":389:454   */\n      swap1\n      pop\n        /* \"#utility.yul\":334:460   */\n      swap2\n      swap1\n      pop\n      jump\t// out\n        /* \"#utility.yul\":466:562   */\n    tag_26:\n        /* \"#utility.yul\":503:510   */\n      0x00\n        /* \"#utility.yul\":532:556   */\n      tag_42\n        /* \"#utility.yul\":550:555   */\n      dup3\n        /* \"#utility.yul\":532:556   */\n      tag_25\n      jump\t// in\n    tag_42:\n        /* \"#utility.yul\":521:556   */\n      swap1\n      pop\n        /* \"#utility.yul\":466:562   */\n      swap2\n      swap1\n      pop\n      jump\t// out\n        /* \"#utility.yul\":568:690   */\n    tag_27:\n        /* \"#utility.yul\":641:665   */\n      tag_44\n        /* \"#utility.yul\":659:664   */\n      dup2\n        /* \"#utility.yul\":641:665   */\n      tag_26\n      jump\t// in\n    tag_44:\n        /* \"#utility.yul\":634:639   */\n      dup2\n        /* \"#utility.yul\":631:666   */\n      eq\n        /* \"#utility.yul\":621:684   */\n      tag_45\n      jumpi\n        /* \"#utility.yul\":680:681   */\n      0x00\n        /* \"#utility.yul\":677:678   */\n      dup1\n        /* \"#utility.yul\":670:682   */\n      revert\n        /* \"#utility.yul\":621:684   */\n    tag_45:\n        /* \"#utility.yul\":568:690   */\n      pop\n      jump\t// out\n        /* \"#utility.yul\":696:835   */\n    tag_28:\n        /* \"#utility.yul\":742:747   */\n      0x00\n        /* \"#utility.yul\":780:786   */\n      dup2\n        /* \"#utility.yul\":767:787   */\n      calldataload\n        /* \"#utility.yul\":758:787   */\n      swap1\n      pop\n        /* \"#utility.yul\":796:829   */\n      tag_47\n        /* \"#utility.yul\":823:828   */\n      dup2\n        /* \"#utility.yul\":796:829   */\n      tag_27\n      jump\t// in\n    tag_47:\n        /* \"#utility.yul\":696:835   */\n      swap3\n      swap2\n      pop\n      pop\n      jump\t// out\n        /* \"#utility.yul\":841:918   */\n    tag_29:\n        /* \"#utility.yul\":878:885   */\n      0x00\n        /* \"#utility.yul\":907:912   */\n      dup2\n        /* \"#utility.yul\":896:912   */\n      swap1\n      pop\n        /* \"#utility.yul\":841:918   */\n      swap2\n      swap1\n      pop\n      jump\t// out\n        /* \"#utility.yul\":924:1046   */\n    tag_30:\n        /* \"#utility.yul\":997:1021   */\n      tag_50\n        /* \"#utility.yul\":1015:1020   */\n      dup2\n        /* \"#utility.yul\":997:1021   */\n      tag_29\n      jump\t// in\n    tag_50:\n        /* \"#utility.yul\":990:995   */\n      dup2\n        /* \"#utility.yul\":987:1022   */\n      eq\n        /* \"#utility.yul\":977:1040   */\n      tag_51\n      jumpi\n        /* \"#utility.yul\":1036:1037   */\n      0x00\n        /* \"#utility.yul\":1033:1034   */\n      dup1\n        /* \"#utility.yul\":1026:1038   */\n      revert\n        /* \"#utility.yul\":977:1040   */\n    tag_51:\n        /* \"#utility.yul\":924:1046   */\n      pop\n      jump\t// out\n        /* \"#utility.yul\":1052:1191   */\n    tag_31:\n        /* \"#utility.yul\":1098:1103   */\n      0x00\n        /* \"#utility.yul\":1136:1142   */\n      dup2\n        /* \"#utility.yul\":1123:1143   */\n      calldataload\n        /* \"#utility.yul\":1114:1143   */\n      swap1\n      pop\n        /* \"#utility.yul\":1152:1185   */\n      tag_53\n        /* \"#utility.yul\":1179:1184   */\n      dup2\n        /* \"#utility.yul\":1152:1185   */\n      tag_30\n      jump\t// in\n    tag_53:\n        /* \"#utility.yul\":1052:1191   */\n      swap3\n      swap2\n      pop\n      pop\n      jump\t// out\n        /* \"#utility.yul\":1197:1287   */\n    tag_32:\n        /* \"#utility.yul\":1231:1238   */\n      0x00\n        /* \"#utility.yul\":1274:1279   */\n      dup2\n        /* \"#utility.yul\":1267:1280   */\n      iszero\n        /* \"#utility.yul\":1260:1281   */\n      iszero\n        /* \"#utility.yul\":1249:1281   */\n      swap1\n      pop\n        /* \"#utility.yul\":1197:1287   */\n      swap2\n      swap1\n      pop\n      jump\t// out\n        /* \"#utility.yul\":1293:1409   */\n    tag_33:\n        /* \"#utility.yul\":1363:1384   */\n      tag_56\n        /* \"#utility.yul\":1378:1383   */\n      dup2\n        /* \"#utility.yul\":1363:1384   */\n      tag_32\n      jump\t// in\n    tag_56:\n        /* \"#utility.yul\":1356:1361   */\n      dup2\n        /* \"#utility.yul\":1353:1385   */\n      eq\n        /* \"#utility.yul\":1343:1403   */\n      tag_57\n      jumpi\n        /* \"#utility.yul\":1399:1400   */\n      0x00\n        /* \"#utility.yul\":1396:1397   */\n      dup1\n        /* \"#utility.yul\":1389:1401   */\n      revert\n        /* \"#utility.yul\":1343:1403   */\n    tag_57:\n        /* \"#utility.yul\":1293:1409   */\n      pop\n      jump\t// out\n        /* \"#utility.yul\":1415:1548   */\n    tag_34:\n        /* \"#utility.yul\":1458:1463   */\n      0x00\n        /* \"#utility.yul\":1496:1502   */\n      dup2\n        /* \"#utility.yul\":1483:1503   */\n      calldataload\n        /* \"#utility.yul\":1474:1503   */\n      swap1\n      pop\n        /* \"#utility.yul\":1512:1542   */\n      tag_59\n        /* \"#utility.yul\":1536:1541   */\n      dup2\n        /* \"#utility.yul\":1512:1542   */\n      tag_33\n      jump\t// in\n    tag_59:\n        /* \"#utility.yul\":1415:1548   */\n      swap3\n      swap2\n      pop\n      pop\n      jump\t// out\n        /* \"#utility.yul\":1554:2167   */\n    tag_8:\n        /* \"#utility.yul\":1628:1634   */\n      0x00\n        /* \"#utility.yul\":1636:1642   */\n      dup1\n        /* \"#utility.yul\":1644:1650   */\n      0x00\n        /* \"#utility.yul\":1693:1695   */\n      0x60\n        /* \"#utility.yul\":1681:1690   */\n      dup5\n        /* \"#utility.yul\":1672:1679   */\n      dup7\n        /* \"#utility.yul\":1668:1691   */\n      sub\n        /* \"#utility.yul\":1664:1696   */\n      slt\n        /* \"#utility.yul\":1661:1780   */\n      iszero\n      tag_61\n      jumpi\n        /* \"#utility.yul\":1699:1778   */\n      tag_62\n      tag_23\n      jump\t// in\n    tag_62:\n        /* \"#utility.yul\":1661:1780   */\n    tag_61:\n        /* \"#utility.yul\":1819:1820   */\n      0x00\n        /* \"#utility.yul\":1844:1897   */\n      tag_63\n        /* \"#utility.yul\":1889:1896   */\n      dup7\n        /* \"#utility.yul\":1880:1886   */\n      dup3\n        /* \"#utility.yul\":1869:1878   */\n      dup8\n        /* \"#utility.yul\":1865:1887   */\n      add\n        /* \"#utility.yul\":1844:1897   */\n      tag_28\n      jump\t// in\n    tag_63:\n        /* \"#utility.yul\":1834:1897   */\n      swap4\n      pop\n        /* \"#utility.yul\":1790:1907   */\n      pop\n        /* \"#utility.yul\":1946:1948   */\n      0x20\n        /* \"#utility.yul\":1972:2025   */\n      tag_64\n        /* \"#utility.yul\":2017:2024   */\n      dup7\n        /* \"#utility.yul\":2008:2014   */\n      dup3\n        /* \"#utility.yul\":1997:2006   */\n      dup8\n        /* \"#utility.yul\":1993:2015   */\n      add\n        /* \"#utility.yul\":1972:2025   */\n      tag_31\n      jump\t// in\n    tag_64:\n        /* \"#utility.yul\":1962:2025   */\n      swap3\n      pop\n        /* \"#utility.yul\":1917:2035   */\n      pop\n        /* \"#utility.yul\":2074:2076   */\n      0x40\n        /* \"#utility.yul\":2100:2150   */\n      tag_65\n        /* \"#utility.yul\":2142:2149   */\n      dup7\n        /* \"#utility.yul\":2133:2139   */\n      dup3\n        /* \"#utility.yul\":2122:2131   */\n      dup8\n        /* \"#utility.yul\":2118:2140   */\n      add\n        /* \"#utility.yul\":2100:2150   */\n      tag_34\n      jump\t// in\n    tag_65:\n        /* \"#utility.yul\":2090:2150   */\n      swap2\n      pop\n        /* \"#utility.yul\":2045:2160   */\n      pop\n        /* \"#utility.yul\":1554:2167   */\n      swap3\n      pop\n      swap3\n      pop\n      swap3\n      jump\t// out\n        /* \"#utility.yul\":2173:2647   */\n    tag_12:\n        /* \"#utility.yul\":2241:2247   */\n      0x00\n        /* \"#utility.yul\":2249:2255   */\n      dup1\n        /* \"#utility.yul\":2298:2300   */\n      0x40\n        /* \"#utility.yul\":2286:2295   */\n      dup4\n        /* \"#utility.yul\":2277:2284   */\n      dup6\n        /* \"#utility.yul\":2273:2296   */\n      sub\n        /* \"#utility.yul\":2269:2301   */\n      slt\n        /* \"#utility.yul\":2266:2385   */\n      iszero\n      tag_67\n      jumpi\n        /* \"#utility.yul\":2304:2383   */\n      tag_68\n      tag_23\n      jump\t// in\n    tag_68:\n        /* \"#utility.yul\":2266:2385   */\n    tag_67:\n        /* \"#utility.yul\":2424:2425   */\n      0x00\n        /* \"#utility.yul\":2449:2502   */\n      tag_69\n        /* \"#utility.yul\":2494:2501   */\n      dup6\n        /* \"#utility.yul\":2485:2491   */\n      dup3\n        /* \"#utility.yul\":2474:2483   */\n      dup7\n        /* \"#utility.yul\":2470:2492   */\n      add\n        /* \"#utility.yul\":2449:2502   */\n      tag_28\n      jump\t// in\n    tag_69:\n        /* \"#utility.yul\":2439:2502   */\n      swap3\n      pop\n        /* \"#utility.yul\":2395:2512   */\n      pop\n        /* \"#utility.yul\":2551:2553   */\n      0x20\n        /* \"#utility.yul\":2577:2630   */\n      tag_70\n        /* \"#utility.yul\":2622:2629   */\n      dup6\n        /* \"#utility.yul\":2613:2619   */\n      dup3\n        /* \"#utility.yul\":2602:2611   */\n      dup7\n        /* \"#utility.yul\":2598:2620   */\n      add\n        /* \"#utility.yul\":2577:2630   */\n      tag_31\n      jump\t// in\n    tag_70:\n        /* \"#utility.yul\":2567:2630   */\n      swap2\n      pop\n        /* \"#utility.yul\":2522:2640   */\n      pop\n        /* \"#utility.yul\":2173:2647   */\n      swap3\n      pop\n      swap3\n      swap1\n      pop\n      jump\t// out\n        /* \"#utility.yul\":2653:2762   */\n    tag_35:\n        /* \"#utility.yul\":2734:2755   */\n      tag_72\n        /* \"#utility.yul\":2749:2754   */\n      dup2\n        /* \"#utility.yul\":2734:2755   */\n      tag_32\n      jump\t// in\n    tag_72:\n        /* \"#utility.yul\":2729:2732   */\n      dup3\n        /* \"#utility.yul\":2722:2756   */\n      mstore\n        /* \"#utility.yul\":2653:2762   */\n      pop\n      pop\n      jump\t// out\n        /* \"#utility.yul\":2768:2978   */\n    tag_18:\n        /* \"#utility.yul\":2855:2859   */\n      0x00\n        /* \"#utility.yul\":2893:2895   */\n      0x20\n        /* \"#utility.yul\":2882:2891   */\n      dup3\n        /* \"#utility.yul\":2878:2896   */\n      add\n        /* \"#utility.yul\":2870:2896   */\n      swap1\n      pop\n        /* \"#utility.yul\":2906:2971   */\n      tag_74\n        /* \"#utility.yul\":2968:2969   */\n      0x00\n        /* \"#utility.yul\":2957:2966   */\n      dup4\n        /* \"#utility.yul\":2953:2970   */\n      add\n        /* \"#utility.yul\":2944:2950   */\n      dup5\n        /* \"#utility.yul\":2906:2971   */\n      tag_35\n      jump\t// in\n    tag_74:\n        /* \"#utility.yul\":2768:2978   */\n      swap3\n      swap2\n      pop\n      pop\n      jump\t// out\n\n    auxdata: 0xa26469706673582212206227635dcde655812f83f0f84ee7606820ef5249954f78818c35367b4167f36b64736f6c63430008110033\n}\n",
				"bytecode": {
					"linkReferences": {},
					"object": "608060405234801561001057600080fd5b506103a8806100206000396000f3fe608060405234801561001057600080fd5b50600436106100415760003560e01c80630b139194146100465780632d0f268014610062578063b464631b1461007e575b600080fd5b610060600480360381019061005b91906102b5565b6100ae565b005b61007c60048036038101906100779190610308565b61011a565b005b61009860048036038101906100939190610308565b61017d565b6040516100a59190610357565b60405180910390f35b806000808573ffffffffffffffffffffffffffffffffffffffff1673ffffffffffffffffffffffffffffffffffffffff168152602001908152602001600020600084815260200190815260200160002060006101000a81548160ff021916908315150217905550505050565b6000808373ffffffffffffffffffffffffffffffffffffffff1673ffffffffffffffffffffffffffffffffffffffff168152602001908152602001600020600082815260200190815260200160002060006101000a81549060ff02191690555050565b60008060008473ffffffffffffffffffffffffffffffffffffffff1673ffffffffffffffffffffffffffffffffffffffff168152602001908152602001600020600083815260200190815260200160002060009054906101000a900460ff16905092915050565b600080fd5b600073ffffffffffffffffffffffffffffffffffffffff82169050919050565b6000610214826101e9565b9050919050565b61022481610209565b811461022f57600080fd5b50565b6000813590506102418161021b565b92915050565b6000819050919050565b61025a81610247565b811461026557600080fd5b50565b60008135905061027781610251565b92915050565b60008115159050919050565b6102928161027d565b811461029d57600080fd5b50565b6000813590506102af81610289565b92915050565b6000806000606084860312156102ce576102cd6101e4565b5b60006102dc86828701610232565b93505060206102ed86828701610268565b92505060406102fe868287016102a0565b9150509250925092565b6000806040838503121561031f5761031e6101e4565b5b600061032d85828601610232565b925050602061033e85828601610268565b9150509250929050565b6103518161027d565b82525050565b600060208201905061036c6000830184610348565b9291505056fea26469706673582212206227635dcde655812f83f0f84ee7606820ef5249954f78818c35367b4167f36b64736f6c63430008110033",
					"opcodes": "PUSH1 0x80 PUSH1 0x40 MSTORE CALLVALUE DUP1 ISZERO PUSH2 0x10 JUMPI PUSH1 0x0 DUP1 REVERT JUMPDEST POP PUSH2 0x3A8 DUP1 PUSH2 0x20 PUSH1 0x0 CODECOPY PUSH1 0x0 RETURN INVALID PUSH1 0x80 PUSH1 0x40 MSTORE CALLVALUE DUP1 ISZERO PUSH2 0x10 JUMPI PUSH1 0x0 DUP1 REVERT JUMPDEST POP PUSH1 0x4 CALLDATASIZE LT PUSH2 0x41 JUMPI PUSH1 0x0 CALLDATALOAD PUSH1 0xE0 SHR DUP1 PUSH4 0xB139194 EQ PUSH2 0x46 JUMPI DUP1 PUSH4 0x2D0F2680 EQ PUSH2 0x62 JUMPI DUP1 PUSH4 0xB464631B EQ PUSH2 0x7E JUMPI JUMPDEST PUSH1 0x0 DUP1 REVERT JUMPDEST PUSH2 0x60 PUSH1 0x4 DUP1 CALLDATASIZE SUB DUP2 ADD SWAP1 PUSH2 0x5B SWAP2 SWAP1 PUSH2 0x2B5 JUMP JUMPDEST PUSH2 0xAE JUMP JUMPDEST STOP JUMPDEST PUSH2 0x7C PUSH1 0x4 DUP1 CALLDATASIZE SUB DUP2 ADD SWAP1 PUSH2 0x77 SWAP2 SWAP1 PUSH2 0x308 JUMP JUMPDEST PUSH2 0x11A JUMP JUMPDEST STOP JUMPDEST PUSH2 0x98 PUSH1 0x4 DUP1 CALLDATASIZE SUB DUP2 ADD SWAP1 PUSH2 0x93 SWAP2 SWAP1 PUSH2 0x308 JUMP JUMPDEST PUSH2 0x17D JUMP JUMPDEST PUSH1 0x40 MLOAD PUSH2 0xA5 SWAP2 SWAP1 PUSH2 0x357 JUMP JUMPDEST PUSH1 0x40 MLOAD DUP1 SWAP2 SUB SWAP1 RETURN JUMPDEST DUP1 PUSH1 0x0 DUP1 DUP6 PUSH20 0xFFFFFFFFFFFFFFFFFFFFFFFFFFFFFFFFFFFFFFFF AND PUSH20 0xFFFFFFFFFFFFFFFFFFFFFFFFFFFFFFFFFFFFFFFF AND DUP2 MSTORE PUSH1 0x20 ADD SWAP1 DUP2 MSTORE PUSH1 0x20 ADD PUSH1 0x0 KECCAK256 PUSH1 0x0 DUP5 DUP2 MSTORE PUSH1 0x20 ADD SWAP1 DUP2 MSTORE PUSH1 0x20 ADD PUSH1 0x0 KECCAK256 PUSH1 0x0 PUSH2 0x100 EXP DUP2 SLOAD DUP2 PUSH1 0xFF MUL NOT AND SWAP1 DUP4 ISZERO ISZERO MUL OR SWAP1 SSTORE POP POP POP POP JUMP JUMPDEST PUSH1 0x0 DUP1 DUP4 PUSH20 0xFFFFFFFFFFFFFFFFFFFFFFFFFFFFFFFFFFFFFFFF AND PUSH20 0xFFFFFFFFFFFFFFFFFFFFFFFFFFFFFFFFFFFFFFFF AND DUP2 MSTORE PUSH1 0x20 ADD SWAP1 DUP2 MSTORE PUSH1 0x20 ADD PUSH1 0x0 KECCAK256 PUSH1 0x0 DUP3 DUP2 MSTORE PUSH1 0x20 ADD SWAP1 DUP2 MSTORE PUSH1 0x20 ADD PUSH1 0x0 KECCAK256 PUSH1 0x0 PUSH2 0x100 EXP DUP2 SLOAD SWAP1 PUSH1 0xFF MUL NOT AND SWAP1 SSTORE POP POP JUMP JUMPDEST PUSH1 0x0 DUP1 PUSH1 0x0 DUP5 PUSH20 0xFFFFFFFFFFFFFFFFFFFFFFFFFFFFFFFFFFFFFFFF AND PUSH20 0xFFFFFFFFFFFFFFFFFFFFFFFFFFFFFFFFFFFFFFFF AND DUP2 MSTORE PUSH1 0x20 ADD SWAP1 DUP2 MSTORE PUSH1 0x20 ADD PUSH1 0x0 KECCAK256 PUSH1 0x0 DUP4 DUP2 MSTORE PUSH1 0x20 ADD SWAP1 DUP2 MSTORE PUSH1 0x20 ADD PUSH1 0x0 KECCAK256 PUSH1 0x0 SWAP1 SLOAD SWAP1 PUSH2 0x100 EXP SWAP1 DIV PUSH1 0xFF AND SWAP1 POP SWAP3 SWAP2 POP POP JUMP JUMPDEST PUSH1 0x0 DUP1 REVERT JUMPDEST PUSH1 0x0 PUSH20 0xFFFFFFFFFFFFFFFFFFFFFFFFFFFFFFFFFFFFFFFF DUP3 AND SWAP1 POP SWAP2 SWAP1 POP JUMP JUMPDEST PUSH1 0x0 PUSH2 0x214 DUP3 PUSH2 0x1E9 JUMP JUMPDEST SWAP1 POP SWAP2 SWAP1 POP JUMP JUMPDEST PUSH2 0x224 DUP2 PUSH2 0x209 JUMP JUMPDEST DUP2 EQ PUSH2 0x22F JUMPI PUSH1 0x0 DUP1 REVERT JUMPDEST POP JUMP JUMPDEST PUSH1 0x0 DUP2 CALLDATALOAD SWAP1 POP PUSH2 0x241 DUP2 PUSH2 0x21B JUMP JUMPDEST SWAP3 SWAP2 POP POP JUMP JUMPDEST PUSH1 0x0 DUP2 SWAP1 POP SWAP2 SWAP1 POP JUMP JUMPDEST PUSH2 0x25A DUP2 PUSH2 0x247 JUMP JUMPDEST DUP2 EQ PUSH2 0x265 JUMPI PUSH1 0x0 DUP1 REVERT JUMPDEST POP JUMP JUMPDEST PUSH1 0x0 DUP2 CALLDATALOAD SWAP1 POP PUSH2 0x277 DUP2 PUSH2 0x251 JUMP JUMPDEST SWAP3 SWAP2 POP POP JUMP JUMPDEST PUSH1 0x0 DUP2 ISZERO ISZERO SWAP1 POP SWAP2 SWAP1 POP JUMP JUMPDEST PUSH2 0x292 DUP2 PUSH2 0x27D JUMP JUMPDEST DUP2 EQ PUSH2 0x29D JUMPI PUSH1 0x0 DUP1 REVERT JUMPDEST POP JUMP JUMPDEST PUSH1 0x0 DUP2 CALLDATALOAD SWAP1 POP PUSH2 0x2AF DUP2 PUSH2 0x289 JUMP JUMPDEST SWAP3 SWAP2 POP POP JUMP JUMPDEST PUSH1 0x0 DUP1 PUSH1 0x0 PUSH1 0x60 DUP5 DUP7 SUB SLT ISZERO PUSH2 0x2CE JUMPI PUSH2 0x2CD PUSH2 0x1E4 JUMP JUMPDEST JUMPDEST PUSH1 0x0 PUSH2 0x2DC DUP7 DUP3 DUP8 ADD PUSH2 0x232 JUMP JUMPDEST SWAP4 POP POP PUSH1 0x20 PUSH2 0x2ED DUP7 DUP3 DUP8 ADD PUSH2 0x268 JUMP JUMPDEST SWAP3 POP POP PUSH1 0x40 PUSH2 0x2FE DUP7 DUP3 DUP8 ADD PUSH2 0x2A0 JUMP JUMPDEST SWAP2 POP POP SWAP3 POP SWAP3 POP SWAP3 JUMP JUMPDEST PUSH1 0x0 DUP1 PUSH1 0x40 DUP4 DUP6 SUB SLT ISZERO PUSH2 0x31F JUMPI PUSH2 0x31E PUSH2 0x1E4 JUMP JUMPDEST JUMPDEST PUSH1 0x0 PUSH2 0x32D DUP6 DUP3 DUP7 ADD PUSH2 0x232 JUMP JUMPDEST SWAP3 POP POP PUSH1 0x20 PUSH2 0x33E DUP6 DUP3 DUP7 ADD PUSH2 0x268 JUMP JUMPDEST SWAP2 POP POP SWAP3 POP SWAP3 SWAP1 POP JUMP JUMPDEST PUSH2 0x351 DUP2 PUSH2 0x27D JUMP JUMPDEST DUP3 MSTORE POP POP JUMP JUMPDEST PUSH1 0x0 PUSH1 0x20 DUP3 ADD SWAP1 POP PUSH2 0x36C PUSH1 0x0 DUP4 ADD DUP5 PUSH2 0x348 JUMP JUMPDEST SWAP3 SWAP2 POP POP JUMP INVALID LOG2 PUSH5 0x6970667358 0x22 SLT KECCAK256 PUSH3 0x27635D 0xCD 0xE6 SSTORE DUP2 0x2F DUP4 CREATE 0xF8 0x4E 0xE7 PUSH1 0x68 KECCAK256 0xEF MSTORE 0x49 SWAP6 0x4F PUSH25 0x818C35367B4167F36B64736F6C634300081100330000000000 "
				},
				"gasEstimates": {
					"creation": {
						"codeDepositCost": "187200",
						"executionCost": "232",
						"totalCost": "187432"
					},
					"external": {
						"get(address,uint256)": "3156",
						"remover(address,uint256)": "25038",
						"set(address,uint256,bool)": "25217"
					}
				},
				"methodIdentifiers": {
					"get(address,uint256)": "b464631b",
					"remover(address,uint256)": "2d0f2680",
					"set(address,uint256,bool)": "0b139194"
				}
			},
			"storageLayout": {
				"storage": [
					{
						"astId": 49,
						"contract": "contracts/SOLIDITY-BY-EXAMPLE/mapping.sol:NestedMapping",
						"label": "nested",
						"offset": 0,
						"slot": "0",
						"type": "t_mapping(t_address,t_mapping(t_uint256,t_bool))"
					}
				],
				"types": {
					"t_address": {
						"encoding": "inplace",
						"label": "address",
						"numberOfBytes": "20"
					},
					"t_bool": {
						"encoding": "inplace",
						"label": "bool",
						"numberOfBytes": "1"
					},
					"t_mapping(t_address,t_mapping(t_uint256,t_bool))": {
						"encoding": "mapping",
						"key": "t_address",
						"label": "mapping(address => mapping(uint256 => bool))",
						"numberOfBytes": "32",
						"value": "t_mapping(t_uint256,t_bool)"
					},
					"t_mapping(t_uint256,t_bool)": {
						"encoding": "mapping",
						"key": "t_uint256",
						"label": "mapping(uint256 => bool)",
						"numberOfBytes": "32",
						"value": "t_bool"
					},
					"t_uint256": {
						"encoding": "inplace",
						"label": "uint256",
						"numberOfBytes": "32"
					}
				}
			},
			"userdoc": {
				"kind": "user",
				"methods": {},
				"version": 1
			}
		}
	}
}